:1000000060C2000096C2000094C2000092C20000CC
:1000100090C200008EC200008CC200008AC20000A4
:1000200088C2000086C200000C94C12A0C948B2B5D
:100030000C941E267EC200007CC200007AC2000022
:1000400078C2000076C2000074C2000072C20000D4
:1000500070C200000C9495266CC200006AC20000B9
:1000600068C2000066C2000064C2000062C20000F4
:1000700060C200005EC200005CC200005AC2000004
:1000800058C2000056C2000054C2000052C2000014
:1000900050C200004EC200004CC200004AC2000024
:1000A00048C2000046C2000044C2000029001E00F1
:1000B0001F0020002100220023002400250026002C
:1000C00027002D002E0035002B0014001A00080018
:1000D000150017001C0018000C00120013002F0060
:1000E00030002A00E00004001600070009000A00A2
:1000F0000B000D000E000F0033003400310028000B
:10010000E1001D001B000600190005001100100091
:100110003600370038000000E50021520000E20000
:10012000E3000000000000002C00000000000000C0
:10013000E7000000E60000000278BE00BD003C00C1
:100140003D003E003F0040004100420043004400AB
:100150004500010001000100010001000100010053
:100160000100010001000100010052000100010036
:100170000100010001000100010001000100010077
:10018000010001005000510001004F00010001007A
:10019000010001000100010001000100A800AA0007
:1001A000A9000000010001000000010001000000A2
:1001B000000000000100000000000000010000003D
:1001C0002252000020782B782C782D782E782F78EA
:1001D000307831783278337800002A782A78000035
:1001E000000000000000000000000000000000000F
:1001F00000000000000000000000000000000000FF
:1002000000000000000000000000000000000000EE
:1002100000000000000000000000000000000000DE
:1002200000000000000000000000000000000000CE
:1002300000000000000000000000000000000000BE
:1002400000000000000000000000000001000000AD
:100250000001010101010101010102020202020289
:10026000020202030303030303030304040404045C
:100270000404050505050506060606060707070723
:100280000708080808090909090A0A0A0B0B0B0CD8
:100290000C0C0D0D0D0E0E0E0F0F0F101011111175
:1002A00012121313141415151616171718181919F6
:1002B0001A1A1B1B1C1D1D1E1E1F2020212222235B
:1002C0002424252626272829292A2B2C2D2D2E2F9C
:1002D00030313232333435363738393A3B3C3D3EB3
:1002E0003F404142434445464748494A4C4D4E4FA2
:1002F00050515354555658595A5B5D5E5F61626464
:10030000656668696B6C6D6F7072737577787A7BF0
:100310007D7E8082838587888A8C8E8F9193959647
:10032000989A9C9EA0A2A3A5A7A9ABADAFB1B3B567
:10033000B7BABCBEC0C2C4C6C9CBCDCFD1D4D6D843
:10034000DBDDDFE2E4E7E9EBEEF0F3F5F8FAFDFFE1
:100350000C034D00360030002D0042000000160353
:10036000520061006D006100200057006F007200B4
:100370006B00730000000403090409023B00020142
:1003800000A0FA0904000001030101000921110184
:10039000000122440007058103080001090401004F
:1003A000010300000009211101000122B600070528
:1003B000820320000112010002000000085354597A
:1003C0000000010102000105010902A101850209E5
:1003D00001A10005091901290815002501950875D5
:1003E0000181020501093009311581257F950275CA
:1003F00008810609381581257F9501750881060554
:100400000C0A38021581257F950175088106C0C048
:1004100005010980A101850319012AB700150126EC
:10042000B700950175108100C0050C0901A1018577
:100430000419012AA002150126A002950175108158
:1004400000C005010906A1018506050719E029E795
:10045000150025019508750181020507190029EF8E
:100460001500250195F0750181020508190129057E
:10047000950575019102950175039101C00501096A
:1004800006A101050719E029E71500250195087562
:100490000181029501750881010507190029FF15E1
:1004A0000026FF0095067508810005081901290539
:1004B00015002501950575019102950175039101BE
:1004C000C00011241FBECFEFDAE0DEBFCDBF04B6FF
:1004D00003FE18C08091050590910605A0910705BF
:1004E000B09108058730904BA740B04B59F410925B
:1004F0000505109206051092070510920805E0E028
:10050000F8E3099512E0A0E0B1E0E2E5FDE502C004
:1005100005900D92A03CB107D9F725E0A0ECB2E020
:1005200001C01D92A530B207E1F70E9411110C9491
:10053000272E66CD8330B8F46530A8F44E3098F499
:1005400050E09EE0699F400D511D1124FA0196E490
:10055000899FE00DF11D1124EE0FFF1FE455FF4FA1
:1005600085919491089581E090E00895E3CF0895F6
:1005700081E00895FDCF0895FBCF089581E00895AF
:10058000F7CF0895F5CF0895FDCF08950895089504
:10059000FDCF089508950895A6E0B0E0E2EDF2E001
:1005A0000C949F2D49835A839E833091C702898181
:1005B0009A81311117C03E81332389F0222379F0CB
:1005C00037D5182F682F89819A8111D569817A8151
:1005D000812F0E945A0E2696E3E00C94BB2D18D56D
:1005E000182FF4CF25D569817A81F3CFFC01262F0E
:1005F000408151816281738184819581CDCFCF9378
:10060000DF93EC0161E0F2DFBE01B4DF882349F043
:1006100061E0CE01EBDFBE01AFDF8170DF91CF91F2
:10062000089580E0FACF0F931F93CF93DF93EC01EF
:1006300060E0DCDF8C01BE01AADFBE01C801A8DFDB
:10064000DF91CF911F910F91089521E030E0A90132
:1006500002C0440F551F8A95E2F7CA0101C4CF9327
:10066000C82F81E090E00C2E02C0880F991F0A94D9
:10067000E2F70E94520C8C2FE8DFCF91089581E0C1
:100680000895FDCF0895FBCF0895CF93C82FA0D331
:100690008C2FF7DF8C2FF7DF2FE78AE196E02150D0
:1006A00080409040E1F700C00000CF91089581E0C4
:1006B000ECDF0C94B92680E0E8DF0C94DD260F9384
:1006C0001F93CF93DF938C0161E090DFEC01B801C1
:1006D00057DF811106C080E0DF91CF911F910F910C
:1006E0000895B801CE0150DF8823A9F3B801CE01E7
:1006F0000E948923882379F3B801CE010E94E31F69
:10070000882349F3B801CE010E94BB1F882319F347
:10071000B801CE010E9427118823E9F2B801CE0169
:100720000E9478118823B9F2B801CE010E945A0FB5
:10073000882389F2F8018581882361F0C330FCE7C2
:10074000DF07D9F050F4C115ECE7DE07A1F0C130A6
:10075000DC47A9F0C80112DFBFCFCB358CE7D80743
:1007600099F0CC35ECE7DE0761F0CA35DC4791F74C
:100770000E94170CEFCF9BDFAECF0E944A0C9BDF8D
:10078000AACF0E940F0CE6CF0E94190CE3CF02DF24
:100790000E94E5250E94571D1DD081E00C946E1E1D
:1007A0001BD080E00E946E1EF6DE0C94E92581E0ED
:1007B00008950895CF93DF93D82FF9DFC82F8823AA
:1007C00011F08D2FF6DF8C2FDF91CF9108950895D2
:1007D000F1CF089580E0FCCF0E94D823F9CFCF93CA
:1007E0000E94D823C82F8091C2028C1771F0C09349
:1007F000C2020E9489266093C3027093C402809350
:10080000C5029093C6028C2FE3DFCF910895ADE02F
:10081000B0E0EDE0F4E00C94A02D488759876A879A
:100820007B878C879D87911125D71F8286E0FE01EB
:100830003896DE01119601900D928A95E1F78D812F
:1008400081110CC029813A814B815C816D817E814F
:100850008F8160D62D96E2E00C94BC2DCE010196DE
:10086000CEDE8111EFCFF6CFFC012481213019F4C7
:10087000808191810EC40895662321F00E94402159
:100880000C940B220E949221FBCFCF93C82F882378
:1008900089F08CEF8C0F813A78F48C2F0E9487249A
:1008A000882321F08C2F0E9429256FD78C2F0E943E
:1008B00012256BD7CF91089580E28C0F883040F4D9
:1008C000C77081E001C0880FCA95EAF7B6D6F1CFAC
:1008D000EBE5EC0FE33040F4F0E0EF59FD4F8081A1
:1008E00090E00E941824E6CFE8E5EC0FEB3150F4DD
:1008F000F0E0EE0FFF1FE55DFD4F808191810E94CA
:100900003F24D8CF83E38C0F8331A0F661E08C2F96
:10091000B3DFD0CF882351F19CEF980F913A18F4B0
:100920000E94292532C790E2980F983048F48770CA
:1009300091E001C0990F8A95EAF7892F84D6F2CF0A
:100940009BE5980F933020F490E080E00C941824FD
:1009500098E5980F9B3120F490E080E00C943F24C0
:1009600093E3980F933110F460E086CF08951F93BE
:10097000CF93DF93182FEB0188DF209731F4812F7D
:10098000C9DFDF91CF911F9108958FEC97E0019718
:10099000F1F700C000002197F0CF70E060E08933EC
:1009A00011F460E570E0E3CF882311F046D6EDC680
:1009B0000895882311F047D6E8C60895B0E0A0E076
:1009C000E4EEF4E00C94992D6C01D62FC72FFC01B6
:1009D0001581068102950F7026D6E82E8823E9F04E
:1009E000E12E1123D1F08C2F807F803461F080E2E2
:1009F0008D0F8830F8F08C2F807E803221F4D23039
:100A0000C8F00023B9F08091F00382FF13C082E0A8
:100A1000E0D609D691E0E82EE926BC2EB2949FE0FC
:100A2000B922FBE0FB1580F1EB2DF0E0E75DF14D25
:100A30000C948A2DE12CF1CF0C2F0F70C07F11F098
:100A40000295007F112381F0002349F080E28D0F91
:100A5000883010F0D11105C0802FEFD596D68D2F9C
:100A600040C0802FFAD5FACF8D2F54DF002361F0DC
:100A700080E28D0F883010F0D11103C0802FE3D5B4
:100A800002C0802FF0D581D6EB2DE850FF0B3497B4
:100A900008F04CC10E94D8239BDECDB7DEB7E9E059
:100AA0000C94B52D2C2F2F70F22EC07FC03219F070
:100AB000F29480EFF822DD2341F0D13081F111234F
:100AC00009F439C00023C9F0CACF8091F00382FD38
:100AD00010C0112341F0FF2019F08F2DAED555D64F
:100AE00080E0D3DED1CF80E015DFFF2069F28F2DCB
:100AF000C6CF112359F0011103C08F2D55DFC4CF8C
:100B0000013009F0C1CF8F2DC9D5BECF0111BCCFA7
:100B10008F2D4FDF8F2DCDD58F2DB2D5B5CF112392
:100B200021F0063008F0B0CFE8CF053008F0ACCFA8
:100B30008F2D3FDFA9CF0023D9F3D93349F43FEFFD
:100B400083EF91E0315080409040E1F700C0000019
:100B50008D2FE0DE99CF8C2F86958695837069F076
:100B6000813009F091CF8D2F9C2F9370111102C00D
:100B700080E090E00E943F2487CF8D2F9C2F9370C0
:100B8000111102C080E090E00E9418247DCF612FF7
:100B90008D2F72DE79CF8C2F837081F5111174CF78
:100BA0004D2F429546954770440F440F2D2F2F70BF
:100BB00030E0042E02C0220F331F0A94E2F790E0C7
:100BC00080E0D4FF09C08FE090E002C0880F991F39
:100BD0004A95E2F780959095C695C695C370822B8D
:100BE000932BC23039F040F4C13011F042D14CCFD8
:100BF00039D14ACF45D148CF33D146CF869511233D
:100C000011F08C2F8170882309F43ECF4D2F42952F
:100C100046954770440F440F2D2F2F7030E0042E5F
:100C200002C0220F331F0A94E2F790E080E0D4FF65
:100C300009C08FE090E002C0880F991F4A95E2F743
:100C400080959095C695C695C370822B932BC23024
:100C500039F040F4C13011F067D116CF5ED114CF16
:100C60006AD112CF1AD110CFCF70112321F08C2F5F
:100C700028D18D2F43CF8D2F9CDE8C2F30D104CFE8
:100C8000D23F39F160F4D03FB9F0D13F81F0112368
:100C900009F43CC00111E3CE8C2F8F711EC0D33FED
:100CA000F1F0D43FA1F78091F00382FD20C08C2F9A
:100CB0008F71112319F311C0112339F0053008F099
:100CC000E3CE8C2F8F711BD1DFCE063008F0DCCE47
:100CD000F8CF8C2F8F711111D1CFF3D0D5CE112336
:100CE00021F08C2F8F71E3D0CFCEDED0CDCE11236B
:100CF00029F063E08C2F8F7155D5C6CE81E069D580
:100D0000023008F4C1CE82E064D5BECE002359F093
:100D1000D93309F01DCFEFEFF3EF21E0E150F040C0
:100D20002040E1F713CF8C2F8F71A8CFEE2009F46C
:100D3000B4CE75D480FDB1CEF60115826AD4C1D08F
:100D4000C60117D066D4CBD0A8CE0F931F93CF93F4
:100D5000DF93EC01688179818D81A4D18C01F2D07F
:100D60007ED0B801CE012ADEDF91CF911F910F9185
:100D70000895CF93DF93EC018C81882381F0CE011D
:100D80009EDC81110FC04FD4882349F08D818823C8
:100D900031F08091F00382FF02C082E01AD5DF912A
:100DA000CF910895CE01D1DFCE013DDCF8CF90E0A8
:100DB00080E00E94182490E080E00E943F245AD4F2
:100DC000E4D40E9424220C940B220E944025EFCFF1
:100DD00041D4FBCF92959F70963091F058F4925F7A
:100DE0009F70923058F4803F19F030F4883E30F410
:100DF00081E008959A5FF4CF843FD1F380E00895B5
:100E0000883EB0F3813FD1F7F3CFFC012481222348
:100E100021F0808191813DD1DDCF80E00895A6E071
:100E2000B0E0E5E1F7E00C94A02D2696E2E00C940A
:100E3000BC2DA7E0B0E0EFE1F7E00C94A02D2796E1
:100E4000E2E00C94BC2D0895FECF0895FDCF0895E7
:100E5000FADFFCDF9093EF028093EE02089508958D
:100E6000F7CF08952091EE023091EF02822B932B61
:100E7000EFCF2091EE023091EF0282239323E8CF4F
:100E80002091EE023091EF0282279327E1CFDBCF52
:100E90000895FDCF0895D7CF0895FDDFFADF909331
:100EA000ED028093EC02089590E080E0F6CF21E01F
:100EB00030E0A90102C0440F551F8A95E2F7CA012C
:100EC000ECCF21E030E002C0220F331F8A95E2F719
:100ED0008091EC029091ED02822B932BDECF21E0EA
:100EE00030E002C0220F331F8A95E2F7209530953B
:100EF0008091EC029091ED0282239323CECF21E0EA
:100F000030E002C0220F331F8A95E2F78091EC0295
:100F10009091ED0282279327C0CF2091EC0230916F
:100F2000ED02822B932BB9CF2091EC023091ED0290
:100F300082239323B2CF2091EC023091ED028227DD
:100F40009327ABCF0895262F277091E001C0990F0A
:100F50002A95EAF723E0769567952A95E1F7660FDB
:100F6000771F660F771FFA01E60FF71F50E040E08A
:100F7000682F70E08191DF0111979B01042E02C060
:100F8000369527950A94E2F7217021952827292381
:100F900028272C934F5F5F4F4430510559F7089530
:100FA000A82FA77023E0969587952A95E1F7880FDB
:100FB000991F880F991FFB01E80FF91F50E040E0CF
:100FC00080E0219130E00A2E02C0369527950A94E0
:100FD000E2F721703327042E01C0220F0A94EAF7AA
:100FE000822B4F5F5F4F4430510559F70895262FEC
:100FF000953068F48E3058F4682F70E08EE0989F3A
:10100000600D711D112448EC52E0822F9CCF089591
:10101000292F953058F48E3048F490E068EC72E057
:101020003EE0239F800D911D1124BACF80E00895EA
:10103000B0E0A0E0EEE1F8E00C94992D7C01009185
:10104000EC021091ED028091EE029091EF02082BDC
:10105000192BCFE0D0E0CC24C394D12CBC2EC601F8
:101060000C2E02C0880F991F0A94E2F78023912367
:10107000892B49F4219790F7B12C8B2DCDB7DEB792
:10108000E9E00C94B52DB7018C2F1FD6019791F391
:10109000F4CFCF93DF93EC01CBDFBE0116D6DF9107
:1010A000CF9108951F93CF93DF93EB019091C702E7
:1010B000992331F0CB01EDDFDF91CF911F9108959E
:1010C000882351F0CB01B4DF182F682FCE018FDFBA
:1010D000BE01812FFAD5F0CFCB019ADF182FF8CFC0
:1010E0001F93CF93DF93C091F00217E08091F1023C
:1010F0008C1304C0DF91CF911F910895D0E01C9F05
:10110000F0011D9FF00D1124EE50FD4F2081318123
:10111000428153816481758186818BDE2196C770FF
:10112000E5CF20912A0330912B0340912C0350915D
:101130002D0360912E0370912F038091300379CE9F
:10114000CF93DF9380913003807F09F04BC0809173
:101150002F03882309F446C0E091F0025091F10278
:10116000C0912B03D0912A0360912C0370912D0321
:1011700047E05E17B9F18E2F90E0E49FF001112453
:10118000EE50FD4F2481222381F1489FF001499FB9
:10119000F00D1124DF01AE50BD4F11962C91119727
:1011A0002C1323C02C912D1320C015962C9115972C
:1011B00021111BC012962D913C91261B370B283C08
:1011C000310598F4809130038F70806180933003F3
:1011D000E850FD4F80818F70806180838AE293E0C8
:1011E000C8DD7EDFDF91CF910895FC013196E77075
:1011F000C0CF482F2091F0029091F10257E02913BF
:1012000002C080E0089530E0529FF001539FF00D3E
:101210001124EE50FD4F8181681306C08081481370
:1012200003C085818111EECF2F5F3F4F2770E7CF3D
:10123000A4E1B0E0EEE1F9E00C94962D8C0186E09B
:10124000F801DE011F9601900D928A95E1F7F801F1
:101250008481E5809AE2A92E93E0B92E90912E0325
:1012600091111AC08823A9F0EE2089F0C801CDDDC4
:10127000F82E882361F087E0F801D50101900D92E6
:101280008A95E1F7C501F0DA5BDF4BDF59C0C80191
:1012900070DDFF24F39454C0C080D180828093809D
:1012A000F0902F0320912C0330912D03A401421BB9
:1012B000530BFF2009F4E9C0483C510508F09CC0DD
:1012C000882309F43DC090912B0380913003282F8F
:1012D000207F09F056C09D1114C090912A03C912B5
:1012E00010C0E11048C08F7080618093300319DF17
:1012F0008AE293E03EDD80913003F8018683F12C91
:101300001FC0E11038C06D2D8C2D73DF6D2D8C2D1D
:1013100070DFE82E8111F3CFCF86D88A8F85988928
:10132000B8DE292F22952F70243078F49F70223058
:10133000A0F09923B1F0F8019681907F91F4FE2CF2
:101340008F2D6496ECE00C94B22D2A5F2F70223022
:1013500060F0C8010EDDEF2CF2CF992311F0882345
:1013600071F3805E883058F3F4CF803F40F3815FA3
:10137000833078F7E4CF809130038160809330032D
:10138000BECF9D1112C090912A03C9120EC0E11068
:101390000CC08683C801EDDC87E0F801AAE2B3E067
:1013A00001900D928A95E1F770CFC8012EDD882358
:1013B00009F46DCFEE2009F46ACF809130038032BA
:1013C00080F020912A0330912B03398728879B8650
:1013D0008A8690912E039C871D868E87CE01089663
:1013E000C8DC87E0F801AAE2B3E001900D928A958B
:1013F000E1F7A6DE96DE4DCF90913003292F207FB6
:1014000089F4682D9A8A898AA6017A899E2D07DD3A
:101410008AE293E0AEDC87E0F50111928A95E9F764
:1014200080DE6DCF882309F48BCF80912B038D1143
:101430000FC080912A03C8120BC0E11009C0968327
:10144000C80197DC87E0F50111928A95E9F778CF1A
:10145000C801DBDC882309F41ACFEE2009F417CF8A
:1014600080913003803208F4BCCF20912A03309160
:101470002B033A8329839C828B8290912E039D8338
:101480001E828F83CE010196ABCF483C5105A8F553
:10149000882309F4FECEFE2CEE2009F4F8CE8091CC
:1014A0002B038D111EC080912A03C8121AC080918F
:1014B000300380FD0DC0982F907F51F08683903FC0
:1014C00009F468CF982F907F905F8F70892B61CF40
:1014D00087E0F801AAE2B3E001900D928A95E1F766
:1014E0002FCFC80192DC81117CCF809130038160C5
:1014F00080933003C8013DDC23CF682D9A8A898A06
:10150000A6017A899E2D8BDC87E0F50111928A95E0
:10151000E9F7BBCEAEE0B0E0E0E9FAE00C949F2D35
:10152000288739874A875B876C877D878E87CE01BE
:1015300008967EDE8823A9F06C85662339F028851D
:1015400039854A855B857D858E8573DC17E08091C2
:10155000F0029091F10289133BC02E96E3E00C94C7
:10156000BB2D87E0FE013896DE01119601900D92A9
:101570008A95E1F78C85882349F32091F10230E0C8
:10158000C9010196877099274091F0024817190602
:1015900091F097E0929FD001939FB00D1124AE502F
:1015A000BD4FFE01319601900D929A95E1F780931F
:1015B000F10296DDCBCF0CDC1092F1021092F0021A
:1015C00087E0EAE2F3E0DF011D928A95E9F7BECFFA
:1015D000819FC00111248E509D4F2ADE882309F47B
:1015E000BCCFE091F0021E9FF0011124EE50FD4FA0
:1015F000208131814281538164817581868119DC2A
:101600008091F00290E00196877099278093F00214
:101610009ECF8091590386958695869508958091F1
:1016200059038770089590915903977081E009F4E8
:1016300080E0089580918503089590918503892B1A
:1016400080938503089580959091850398239093C6
:101650008503089510928503089590918403892B42
:1016600080938403089580959091840398239093A8
:10167000840308951092840308950895FECF089579
:1016800090915A03292F282329F08095892380934C
:101690005A03F4CF08950895FECF089590915B0307
:1016A000292F2823281721F0982B90935B03F4CF40
:1016B000089590915B03292F282329F08095892391
:1016C00080935B03E9CF089580915B03882321F029
:1016D00010925B0380E0E0CF0895CF93C091850323
:1016E00080918403C82B80915B03882329F0C82B49
:1016F0000E9466248111E8DF8C2FCF910895CF934B
:10170000DF93C0910202D0910302E7DF8883C0918A
:101710000202D091030248E050E061E573E0CE019F
:101720000E94C72D892B59F088E0FE01A1E5B3E0A6
:1017300001900D928A95E1F7CE010E94E723DF9197
:10174000CF910895CF93DF93C0910002D091010211
:10175000C4DF8983C0910002D091010240E250E0D1
:1017600061E373E0CE010E94C72D892B59F080E21E
:10177000FE01A1E3B3E001900D928A95E1F7CE015D
:101780000E94F423DF91CF9108950E94D1238823F2
:1017900029F08091EF0387FF01C0D4CFB0CF089527
:1017A000FECF08959091F00392FF0EC098E0899FBC
:1017B00090011124622B6093590383DB80915903BC
:1017C000869586958695ECCF7CCB1092590380E068
:1017D000E7CF909159038095892380935903282F4F
:1017E000277059F4891749F09091F00392FF05C0D2
:1017F00086958695869573DBE8CF08959091F003E2
:1018000092FB222720F9281749F080FB92F9909348
:10181000F0038FEE93E04AD082E0DBCF0895809111
:10182000F00382FB882780F991E08927E7CF81E0E8
:10183000E5CF80E0E3CF60E070E0CB01A6C360E0DD
:1018400070E0CB019CD3F7CFA3E0B0E0EAE2FCE08C
:101850000C94A02D41D34CD31B82CE0103965FD3B1
:1018600081E090E09093EF028093EE0264D31A82BD
:1018700019828A8184618A83CE0101966DD30E9488
:101880003916DDDF0E9432162396E2E00C94BC2D5F
:10189000DBCF089533C3089520C3089535C3089559
:1018A00044C3089548C308954BC3089555C308958C
:1018B0005AC308955EC308956EC30895A6E0B0E0CC
:1018C000E4E6FCE00C949E2D0E947D268C01809124
:1018D0008603909187038017910781F019821A82FD
:1018E0000E947D26682F49815A81792F80E090E0FF
:1018F0000E94070410938703009386032696E4E072
:101900000C94BA2D0E9489266093960370939703D6
:101910008093980390939903609392037093930339
:101920008093940390939503089508950895FDCFAF
:1019300008950895FEDFFBCF0895FECF0895089522
:10194000FEDFFBCF88E59FE07DD4F0DFF3CF81E0C1
:101950000895FDCF0895FBCF089508950895089543
:10196000FCDFFCDFFCCF98DF811101C091DF8AE949
:1019700093E094DF8FEE93E097DF0E94B91F90DF32
:101980006FDA8091EC029091ED0283CA0E94742676
:10199000C0D3E9DF0E94E7030E94131ED1CFA6E067
:1019A000B0E0E5EDFCE00C94942DD3DF81110BC089
:1019B00085DF0E94571D0E9446220E94EF03269653
:1019C000EEE00C94B02DB7D328E8822E23E0922EBF
:1019D000640110E0F601E190F1906F01812FE6D2F1
:1019E0001F5F153009F44AC0E816F90699F3809193
:1019F0009A0381FDE4D2AFDF682E10E0812FD6D2AA
:101A00007C01F401A190B1904F018A159B0589F1E9
:101A100000E0CC24C394D12CAE24BF24C5018C217A
:101A20009D21892BE9F077247394C7018C219D2196
:101A3000892B09F4712C662071F009831A830E94A6
:101A40007D26682F8B839C8349815A81792F81E081
:101A5000972D0E940704472D602F812F0E94EF16BB
:101A60000F5FCC0CDD1C0E30C9F6F4013297F18209
:101A7000E0821F5F153011F645DF9BCFE816F906AF
:101A800009F0B5CF95CF1F93CF93DF9320D1EC0111
:101A9000C11580E5D807F0F5C11580E4D80708F036
:101AA0009AC0C03ED10520F5CD3CD10508F082C0DA
:101AB000C83AD10578F4C53AD10508F073C0C130F1
:101AC000D10519F1209709F1C430D105F0F4D0E027
:101AD000C0E01BC0C33CD105D0F7C85AD0E0CC0F42
:101AE000DD1FCC59DD4F0990D881C02DD4640DC0C5
:101AF000C11580E2D80708F0CDC0C11581E0D80734
:101B000008F05AC0C83ED10510F7CE01DF91CF9141
:101B10001F910895C03682E5D80718F5C03482E5D4
:101B2000D80708F068C0C03282E5D80708F05CC06A
:101B3000C11582E5D80708F493C02C2F2695269569
:101B400080E2289F900111248C2F8370C1E0D0E0A7
:101B500002C0CC0FDD1F8A95E2F7C22BD32BDD68C4
:101B6000D4CFC03A82E5D80760F4C03882E5D80700
:101B700008F456C0CF71D0E0DC2FCC27C46FD06AF8
:101B8000C4CFC03C82E5D80708F45FC0C03E82E500
:101B9000D80708F09CCFDC2FCC27CC27DF71C06F93
:101BA000D06AB3CFC55AD0E0C656DD4FC881D0E069
:101BB000D064ABCFD065A9CF8D2F2BD1182FCE01FC
:101BC000992785D0C12FD0E0DC2FCC27CC27DF711F
:101BD000C82BD92B9ACFCE01992779D0CC27DF708B
:101BE000C82BD92BD06A91CFCF71D0E0DC2FCC2776
:101BF000C16FD06A8ACF2C2F26952695277080E258
:101C0000289F900111248C2F8370C1E0D0E002C086
:101C1000CC0FDD1F8A95E2F7C22BD32BDC6875CF82
:101C20002C2F26952695277080E2289F900111245D
:101C30008C2F8370C1E0D0E002C0CC0FDD1F8A95ED
:101C4000E2F7C22BD32BDA6860CF8C2F8F71E1D0F3
:101C5000C82FD0E0DC2FCC27CC27DF71D06255CF46
:101C60008C2F8F71D6D055E0D695C7955A95E1F750
:101C7000CF70D0E0DC2FCC27282F30E084FF06C0C7
:101C800044E0220F331F4A95E1F73327C22BD32BB1
:101C9000D0693BCF8D2F8F71BCD0182FCE019927E3
:101CA00016D0C12FD0E0DC2FCC27CC27DF71C82B7A
:101CB000D92BD4CF462F753028F46E3018F4672F07
:101CC0000C94B60290E080E00895F4DFDCCE823818
:101CD0009105B9F1B0F48133910509F47DC048F460
:101CE0008932910509F46DC08A32910509F47BC0EF
:101CF00008958533910509F45FC08933910509F191
:101D00000895833E9105D9F138F4803E910529F17B
:101D1000823E910579F10895863E9105D9F1873E7D
:101D2000910509F43EC0843E910541F52091F003F0
:101D300021FF24C08091EF0384FD19C087EE90E05D
:101D400008952091EF03237009F05AC02091F00309
:101D500023FF14C089E290E008952091EF0320FD55
:101D600038C03091F00330FF09C024FF43C090E039
:101D700080E008952091EF0322FDF7CF0895209190
:101D8000EF0322FD3AC03091F00330FD39C024FF4B
:101D9000F5CFEDCF2091EF0323FFF0CF24FDE7CF68
:101DA000CDCF2091EF0323FD2EC03091F00331FF02
:101DB000EECF84EE90E008952091EF0325FFDECF73
:101DC000C9CF2091EF0325FD21C02091F00323FF0F
:101DD000D5CF89E390E0D2CF2091EF0326FFCECF7D
:101DE0008AE290E008952091EF0326FFC7CF81E3B8
:101DF00090E0089583EE90E0089582EE90E00895DB
:101E000080EE90E0089586EE90E0089585E390E0FE
:101E100008959091EF0392FF10C041E0282F2471A4
:101E2000243009F040E031E0282F2871283009F0F3
:101E300030E0431711F02CE0822793FF10C041E0FF
:101E4000282F2471243109F040E031E0282F287137
:101E5000283109F030E0431711F02CE0822730914F
:101E6000F00330FF10C051E0282F2171213009F01C
:101E700050E041E0282F2871283009F040E0541745
:101E800011F029E0822731FF10C041E0282F217195
:101E9000213109F040E031E0282F2871283109F084
:101EA00030E0431711F029E0822794FD877E0895E2
:101EB00080E00895CF939C01205E3245C1E020323E
:101EC000310538F4FB01C581C11103C08F710E9437
:101ED0002F038C2FCF910895089590E080E00E9409
:101EE000F52D21E0833E9E4F09F020E0822F0895DA
:101EF00063EE7EEF90E080E00C94232E6FEF7FEF97
:101F000090E080E00C94232ECF93DF93EC0182E0ED
:101F100090E00E94ED2D8883DF91CF910895FC0120
:101F2000608182E090E00C94092E83E090E00E94B2
:101F3000ED2D90E00895682F83E090E00C94092E39
:101F4000CF93DF93EC0184E090E00E94F52D99831C
:101F50008883DF91CF910895FC016081718184E0D5
:101F600090E00C94232E48E050E067E170E00C9480
:101F7000DD2D48E050E067E170E00C94FA2DAB01F4
:101F8000BC018FE090E00C941B2EAB01BC0183E1FF
:101F900090E00C941B2E682F8EE090E00C94092E9C
:101FA0000895FECF08950895FECF0895E82FF0E03C
:101FB000EE0FFF1FE550FC4F808191810895089539
:101FC00080E58A95F1F7089500C00895F9CF089546
:101FD000F894E82FE295EF70F0E031A1282F2F70F0
:101FE00081E090E001C0880F2A95EAF7982F90953C
:101FF000932391A392A1892B82A3789408950F93A0
:102000001F93CF93DF93CBEAD2E089918F3F09F002
:10201000DFDF82E0C03BD807C1F7CDE9D2E00BEAB1
:1020200012E089918F3F09F0D3DF0C171D07C9F724
:10203000DF91CF911F910F910895AF92BF92DF92E0
:10204000EF92FF920F931F93CF93DF938C01D62EC5
:10205000C62FD0E0CE0185559D4F7C01FC0120812B
:102060002F3F09F449C0F894E22FE295EF70F0E0B9
:1020700031A12F7081E090E001C0880F2A95EAF726
:10208000932F982B91A392A18095892382A3789472
:102090009BDFEDE9F2E041E050E0B12CA12C219171
:1020A0002F3FA1F1A22FA295AF70B0E090968C9136
:1020B00090E02F7002C0959587952A95E2F780FDF4
:1020C00025C0CA01A82AB92A440F551F82E0EB3A5D
:1020D000F80729F7F70180818F3F09F079DF61E088
:1020E000A114B10409F460E08D2D70DFCC0FDD1F69
:1020F000C00FD11FB982A882DF91CF911F910F919C
:10210000FF90EF90DF90BF90AF90089590E080E057
:10211000D9CF75DF8AE0EBEFF3E0DF01982F1D9256
:102120009A95E9F7E1EFF3E0DF011D928A95E9F76F
:1021300085E039D036CFAAE0B0E0E1EAF0E10C94D6
:102140009D2D8E010F5F1F4F8AE0F80111928A9535
:10215000E9F7F12C6F2DC80170DFF394F5E0FF1261
:10216000F9CF4AE050E0B80181EF93E00E94C72D1B
:1021700021E0009709F420E0892B41F08AE0F80182
:10218000A1EFB3E001900D928A95E1F745E06BEF86
:1021900073E081EF93E008D0182F06DF812F2A9695
:1021A000E5E00C94B92D0895B0E0A0E0EAEDF0E18F
:1021B0000C949A2D6C017B01042FC22F222379F0FD
:1021C00081E080939D030E947D2690939C038093E1
:1021D0009B0380E0CDB7DEB7E8E00C94B62DD0913C
:1021E0009D03DD23B1F380919B0390919C030E949A
:1021F000FE25059770F310E0000F111FA801B6012E
:10220000C7010E94C72D892B31F0A801B601C70173
:102210000E94D42DCD2F10929D038C2FDBCFBFCBEE
:1022200008950E9417260E9410288CDB0E942828FF
:10223000ADDB0E9431280E943428F1DF0E944A2839
:102240008FDBF9CF9093C1028093C00208950F9362
:102250001F93CF938C01FB01C581CC2309F446C0A9
:10226000E9D98272F801E052F847EB30F10538F411
:10227000EB5CF14D0C948A2D0E94911EC0E08C2FD6
:10228000CF911F910F910895882329F00E94E31E9A
:10229000F5CF8823D9F30E94D71EF0CF882329F0E9
:1022A0000E94121FEBCF8823D9F30E94051FE6CFAF
:1022B000882329F00E94301FE1CF8823D9F30E94A0
:1022C000211FDCCF882329F00E944E1FD7CF8823FF
:1022D000D9F30E943F1FD2CF882329F00E94661FA6
:1022E000CDCF8823D9F30E945A1FC8CFC1E0C7CFF2
:1022F0001F93CF93DF93EC01FB01158111110FC0E8
:1023000099D98272FE01E054F847ED30F10508F0EA
:1023100043C0E05CF14D0C948A2D0E94A01E812FD9
:10232000DF91CF911F9108950E94B01EF8CF0E94B7
:10233000911EF5CF882329F00E94E31EF0CF882359
:10234000D9F30E94D71EEBCF882329F00E94121FD9
:10235000E6CF8823D9F30E94051FE1CF882329F017
:102360000E94301FDCCF8823D9F30E94211FD7CFD2
:10237000882329F00E944E1FD2CF8823D9F30E94D0
:102380003F1FCDCF882329F00E94661FC8CF882326
:10239000D9F30E945A1FC3CF11E0C1CFEF92FF9231
:1023A0000F931F93CF93DF939B01682F31110EC0C2
:1023B000442329F0E82FF0E0E05BFD4F6491762F95
:1023C000862FCDB7DEB7E6E00C94B82DC32FD0E052
:1023D000E82FF0E0442321F0E05BFD4FE491F0E0D2
:1023E00046E0249FC00111240FEF10E0B8010E94C5
:1023F000252DAB01822F90E0880F991F25E5249FA2
:10240000B001259F700D1124861B970B982F990FF3
:10241000980FB8016C1B7D0B6E9FD0016F9FB00DA4
:102420007E9FB00D11248B2F939F90011124232F99
:102430003327B801621B730B6E9F90016F9F300DA5
:102440007E9F300D11247801E91AF108EC9EB0014D
:10245000ED9E700DFC9E700D1124672F7727061BD3
:10246000170B0E9FE0010F9FD00D1E9FD00D112462
:102470007D2F9E2F4230510599F048F441155105AA
:1024800069F04130510581F07B2F832F07C0443024
:10249000510569F080F046305105B1F7692F91CFB1
:1024A0009B2F8D2F7E2FFACF7E2F932FF7CF9D2F2F
:1024B0007B2F8E2FF3CF732F9B2FFBCF41E06ECF5F
:1024C000282F269F020E20E0211D1124822F08951F
:1024D00030E020E0869F080E211D969F200D311DC3
:1024E0001124290F311DC9010895AC0182309105D5
:1024F00008F408959FEF413E8EE1580740F49A0199
:1025000095E0369527959A95E1F798E0920F61E06E
:10251000E62FE90FFF27FF1F9F0135952795822F93
:10252000229FF001239FF00DF00D11244E175F073D
:1025300038F49FEF920F961758F78FEF860F089594
:102540002F3FE9F361E0620FF6CF40911002509106
:10255000110225E038E0429FC001439F900D529F39
:10256000900D1124875E994C909311028093100274
:10257000890F0895E82F86FDE0952E2F2F7086FD98
:102580002F5FE695E695E695E670F0E0E055FD4FA5
:102590009181929F902D212D112492959F702295CB
:1025A000207F922B2081920F87FD919580E8890FE3
:1025B00008951F93CF93DF93D62FC72F182F822F05
:1025C0008695D8DF805887FD8195612F880F78DF49
:1025D0006D2F7C2FDF91CF911F9108950F931F9343
:1025E000CF93DF93162FC72FD82F022FE42FF0E0C1
:1025F000EE0FFF1FEA5BFE4F64EE808161DF4C2F20
:1026000050E0282F30E0245E3F4F201B310937FF78
:1026100003C031952195310983E0220F331F8A953C
:10262000E1F7CA01821B930B97FD80E06C2F48DF16
:10263000612F782F8D2FDF91CF911F910F910895EA
:102640000F931F93CF93DF93162FD72FC82F022FEF
:10265000E42FF0E0EE0FFF1FEA5BFE4F64EE808197
:102660002FDF4C2F50E0282F30E0245E3F4F201BFF
:10267000310937FF03C031952195310983E0220FDD
:10268000331F8A95E1F7CA01821B930B97FD80E007
:102690006C2F16DF612F7D2FDF91CF911F910F914E
:1026A0000895622F0895E42FF0E0EE0FFF1FEA5B1C
:1026B000FE4F6081621B0895E42FF0E0EE0FFF1FD4
:1026C000E95BFE4F6081621B0895322F50E0FA01F2
:1026D000EE0FFF1FE95BFE4F9081905297FD9195A1
:1026E000440F551FFA01EA5BFE4F2081231B330B79
:1026F000290F311D97FD3A95620F0895EF920F93C0
:10270000972F23E0029FB0011124759567956E0DF8
:10271000792F0F91EF9008950F93CF93DF93D72FD9
:10272000C82F47FD419588E390E0841B910947FD40
:102730009395889FB001899F700D700D1124229F81
:10274000C001239F900D900D1124860F971FCDDEA1
:10275000982F990F890F682F600F7D2F8C2FDF9195
:10276000CF910F9108950F931F93522F10E0F8010E
:10277000EE0FFF1FE95BFE4FA081A052BB0B9D0136
:102780005203F001539FF00D1124000F111FD801C7
:10279000AA5BBE4F0C910057110B40039001419F63
:1027A000300D11242E0F3F1F37FF02C021583F4F1D
:1027B000220F232F221F330B620F1F910F910895B9
:1027C0000F931F93522F10E0F801EE0FFF1FE95BEC
:1027D000FE4FA081A052BB0B9D015203F001539FFD
:1027E000F00D1124000F111FD801AA5BBE4F0C91F0
:1027F0000057110B40039001419F300D11242E0F03
:102800003F1F37FF02C0215C3F4F96E0359527956B
:102810009A95E1F7620F1F910F9108950F931F93FF
:1028200010E0F801EE0FFF1FEA5BFE4F908190571A
:1028300097FD9195000F111FF801E95BFE4F008194
:102840000052110B2003F001219FF00D112408E329
:1028500010E0091B110997FD139540039001419F5A
:10286000300D1124E20FF31F9F01220F331F2E0F93
:102870003F1F37FF02C021583F4F220F232F221F37
:10288000330B620F1F910F9108951F93CF93DF9326
:10289000C62F172FD82F822F86956CDE805887FD84
:1028A00081956CE0880F0CDE682F6C0F712F8D2FD7
:1028B000DF91CF911F9108950F931F93CF93DF93D3
:1028C000D62F072F182FC42F822F54DEEC2FF0E0C5
:1028D000EE0FFF1FEA5BFE4F90819058890F87FD36
:1028E00081956CE0880FECDD682F6D0F702F812FC4
:1028F000DF91CF911F910F9108951F93CF93DF9395
:10290000C62F172FD82FE42FF0E0EE0FFF1FEA5B42
:10291000FE4F8081821B87FD819568E1D1DD682FA4
:102920006C0F712F8D2FDF91CF911F910895CF9351
:10293000DF93D62FC72F682F842F8095C1DD6D2F91
:102940007C2FDF91CF9108951F93CF93DF93C62FF4
:10295000172FD82F60E4842F8095B2DD682F6C0F7D
:10296000712F8D2FDF91CF911F910895EF92FF92DC
:102970000F93970195E0099F200D311D11242F3FE2
:10298000310519F010F02FEF30E02095382F320F7D
:1029900008F43FEF832F0F91FF90EF900895EF928F
:1029A000FF920F931F930E0D1F2D111DF90137FF7D
:1029B00003C0F195E195F10924E0EE0FFF1F2A9580
:1029C000E1F7EF3FF10519F014F0EFEFF0E09A01B5
:1029D00057FF03C031952195310994E0220F331F31
:1029E0009A95E1F72E173F070CF4F901E00FF11F5C
:1029F000EF3FF10519F010F0EFEFF0E0E095282F30
:102A00003E2F230F08F42FEF822F1F910F91FF907D
:102A1000EF900895EF92FF920F93972F093438F4B7
:102A2000B701601B71096F3F710519F010F06FEF6E
:102A300070E0485F5F4F4131510540F0A901485FA8
:102A40005F4F4131510510F06FEF70E06095482FF6
:102A5000460F08F44FEF842F37FF02C02D5F3F4F22
:102A6000359527953595279560910604620F792F46
:102A70000F91FF90EF900895EF92FF920F939701BF
:102A8000201B31092F3F310519F010F02FEF30E0F6
:102A9000322F3095482F430F08F44FEF842F620FE9
:102AA0000F91FF90EF900895EF92FF920F9397018F
:102AB000201B31092F3F310519F010F02FEF30E0C6
:102AC0002095382F320F08F43FEF832F0F91FF909E
:102AD000EF9008959091A003892B8093A00308950F
:102AE000FC019B01009729F480E077FF2BC080E870
:102AF0000895AC0197FF04C044275527481B590B84
:102B0000B901640F751F37FD10C0241B350BC901B7
:102B1000A5E0880F991FAA95E1F70E94392D80E260
:102B2000861BF7FF0FC081950895CB0165E0880FE4
:102B3000991F6A95E1F7BA01621B730B0E94392D48
:102B400080E6EECF08950F931F93CF93DF93162F58
:102B5000C72FD82FC901272F201B022FBA01C0DF92
:102B6000982F990F990F891B6C2F800FA9DC612F6B
:102B7000782F8D2FDF91CF911F910F9108950F9393
:102B80001F93CF93DF93162FD72FC82FC9012C2F58
:102B9000201B022FBA01A4DF982F990F990F891BD0
:102BA0006C2F800F8DDC612F7D2FDF91CF911F91D6
:102BB0000F910895EF920F931F93CF93DF93162FEA
:102BC000C72FD82FC9010E19070FBA0189DF6C2F43
:102BD000081B802F75DC612F782F8D2FDF91CF910F
:102BE0001F910F91EF900895EF920F931F93CF9342
:102BF000DF93162FD72FC82FC9010E190C0FBA015A
:102C00006FDF6C2F081B802F5BDC612F7D2FDF9126
:102C1000CF911F910F91EF9008950F93CF93DF9372
:102C2000D72FC82FC901BA015BDF682F600F7D2F36
:102C30008C2FDF91CF910F910895EF920F93CF9347
:102C4000DF93D72FC82FC9010E19BA0149DF602FB2
:102C5000681B7D2F8C2FDF91CF910F91EF900895FE
:102C60002DCC089585E094E00E945A0C1092A003A8
:102C70000895E5E0F4E081E380838091280290915B
:102C80002902A0912A0281839283A3838FE7848300
:102C90008FEF8583CF010E945A0C1092A0030895F4
:102CA00080E008950F931F93CF93DF93C82FD62F03
:102CB0008A01F6DF9EE0C99FB001112460507F4F6A
:102CC0006D0F711DFB0190819F3F29F0F801E80F06
:102CD000F11D90838F5FDF91CF911F910F91089528
:102CE000E091BE02F091BF02099508950895FF9208
:102CF0000F931F93CF93DF93162F042FF22EC091C3
:102D0000BA02D091BB02F2DF2F2D402F612FFE01BE
:102D10000995CDB7DEB7E5E00C94B92DB0E0A0E0A1
:102D2000E4E9F6E10C949B2DC82FD0E0FE01EE53B0
:102D3000FE4F8081682341F1D09007040091080480
:102D400010910604E12EF12C00DC282FC7018C54D1
:102D50009F4F68E671E00E94392D8E199F0997FDFB
:102D60000396959587959595879543E0249F9001C7
:102D70001124612F839F600D11247D2D802F70DF22
:102D8000472F282FCE01B3DFCDB7DEB7E7E00C9495
:102D9000B72D1F93CF93DF93C82FD0E0FE01EE53E2
:102DA000FE4F8081682389F0D0DB182FCEDB20E82E
:102DB000829FC00111247FE7790F612F8091080461
:102DC0004FDF472F282FCE0192DFDF91CF911F9148
:102DD0000895E091BC02F091BD0209950895CF924B
:102DE000DF92FF920F931F93CF93DF93CDB7DEB7A0
:102DF00028970FB6F894DEBF0FBECDBF182F062F51
:102E0000F42E0E94A70C882309F44BC0FF2009F47C
:102E100056C0AE014F5F5F4F602F812F43DFF82E0A
:102E20000F2D10E08091A103800F912F911D099724
:102E30006CF188E090E06C01C01AD10AB8016E55BF
:102E40007C4FA60182EA93E00E94D42DB80166551A
:102E50007C4FA6018AEA93E00E94D42DA601440F7C
:102E6000551FB801660F771F66547C4F8AEB93E0BD
:102E70000E94D42DB8016E547C4FA60182EB93E0E2
:102E80000E94D42D88E08F198093A1031091A10393
:102E9000DE01119640E0842F810FF41212C080935E
:102EA000A10328960FB6F894DEBF0FBECDBFDF9109
:102EB000CF911F910F91FF90DF90CF900895F12C4B
:102EC000AFCF5D91252F30E090E0BC016F557C4F76
:102ED000F901EE0FFF1FEA5BFE4F0081FB0101834A
:102EE000220F331FF901E95BFE4F2081FB0121878F
:102EF000518B880F991FFC01EF55FC4F128E118EDC
:102F00004F5FC9CF81E00895FDCF0895FBCF0895AD
:102F1000FBDFFCCF9DE0899F802D1124980F9F330C
:102F200008F09EE30895B0E0A0E0E9E9F7E10C9431
:102F3000942D5C014B01FC018081ECDFC82F192F1F
:102F400060910904669580910D0490910E04C0DA99
:102F5000F82ED0E0C11748F081E01E3308F080E081
:102F6000CDB7DEB7EEE00C94B02DFE01EE53FE4F70
:102F70008081F50191818923A9F1CE01880F991FE4
:102F800080509F4FFC01EA5BFF4F2081422F40574A
:102F9000550B6A01895B9F4FFC018081282F2052CD
:102FA000330B3901449F9001459F300D300D1124A2
:102FB000669CC001679C900D900D1124820F931F99
:102FC00094DA082F60910604709107048091080438
:102FD000EF2C9301A601F401099542DE472F282F1B
:102FE000CE0185DE2196B6CF6AED75E19CCF64EF08
:102FF00075E199CF6EE773E196CF6DE176E193CFFE
:10300000B0E0A0E0E6E0F8E10C94992D6C017B01C2
:10301000FC0180817FDFC82F192F6091090466951C
:1030200080910D0490910E0453DAB82ED0E0C117B0
:1030300048F081E01E3308F080E0CDB7DEB7E9E06C
:103040000C94B52DFE01EE53FE4F8081F601918167
:103050008923F9F0CE01880F991F80509F4FFC0102
:10306000E95BFF4F20812052330B8A5B9F4FFC01AD
:1030700040814057550B6091060470910704809180
:1030800008040B2DF7010995EBDD472F282FCE0102
:103090002EDE2196CCCF63EA75E1B2CF6FEB75E1FE
:1030A000AFCF6CE873E1ACCF6DE076E1A9CFB0E0D3
:1030B000A0E0EDE5F8E10C949A2D7C018B01FC0178
:1030C000808128DFC82FD92E609109046695669506
:1030D00021E0620F08F46FEF80910D0490910E04CF
:1030E000F7D9C82ED0E0CD1550F081E09DE39D15B5
:1030F00008F480E0CDB7DEB7E8E00C94B62DFE0111
:10310000EE53FE4F8081F7019181892379F0609120
:10311000060470910704809108042C2D4C2FF801AF
:1031200009959EDD472F282FCE01E1DD2196DBCFCB
:1031300069ED72E1BCCF6EEE72E1B9CF60E273E18E
:10314000B6CF61E573E1B3CF63E573E1B0CF6CE572
:1031500073E1ADCF65E673E1AACF65E474E1A7CF73
:103160006CE574E1A4CF6DE774E1A1CFB0E0A0E01D
:10317000ECEBF8E10C94962D5C016B01FC01808175
:10318000C9DEC82FF92E6091090466956695809175
:103190000D0490910E049CD9182F80E4810FEAD978
:1031A00090E8992E980E812FE5D920E8822E880E7E
:1031B000D0E0CF1550F081E09DE39F1508F480E04A
:1031C000CDB7DEB7ECE00C94B22DFE01EE53FE4F0E
:1031D0008081F5019181892389F0609106047091C5
:1031E000070480910804E12E0C2F282D492DF601AB
:1031F000099536DD472F282FCE0179DD2196D9CFCD
:1032000063EB73E1B3CF60EE73E1B0CF6EE074E1D6
:10321000ADCFB0E0A0E0EFE0F9E10C94992D8C0186
:103220007B01FC01808176DEC82FB92E2091090434
:1032300031E0230F08F42FEF30E050E040E06FEF73
:103240007FEF80E090E00E946E2D6901D0E02C2F8E
:10325000CB1550F081E0FDE3FB1508F480E0CDB71D
:10326000DEB7E9E00C94B52DFE01EE53FE4F8081F0
:10327000F80191818923F1F0409111044150042E0D
:10328000000C550B47FF18C0C6016091090421E0EE
:10329000620F08F46FEF1CD9AC01609106047091C5
:1032A000070480910804F7010995DADC472F282FDD
:1032B000CE011DDD2196CBCFFA01EF5EFB4F818958
:1032C00082130AC0FA01EE0FFF1FEF5EFB4F818DE4
:1032D000928D8C159D05C8F241505109D3CF67E9F5
:1032E00074E197CF64EA74E194CFAAE0B0E0EBE731
:1032F000F9E10C94902D8B832B015E834D83FB01B0
:10330000808108DE9A83F0911104FC83282F30E03D
:103310003A872987C901880F991FFC01EA5BFE4F94
:103320006F01FB818F2F90E09C012F5F3F4F38870B
:103330002F83EA81F985FE1740F081E0EE3308F033
:1033400080E02A96E2E10C94AC2DE985FA85EE53F3
:10335000FE4F8081F20191818923E1F030900604D3
:10336000109107042F8138852F5E3B4F39013B8137
:103370003983212C29813C812317A8F0609108040E
:10338000822D9ED8632D712F6BDC472F282F8985C6
:103390009A85ADDC89859A8501969A87898792E01E
:1033A000C90ED11CC6CFF30181913F01F601A08067
:1033B000A81ABB088180F3018781881A9908AA9C02
:1033C0009001AB9C300D300D1124889CC001899C6C
:1033D000900D900D1124820F931F87D8082F6091B4
:1033E000090421E0620F08F46FEFF301EE0FFF1FF5
:1033F000E151F440858996896BD87C019401A5013F
:10340000632D712F822DED81FE810995362E172FA8
:10341000F981FF5FF983282EADCF2091110431E0AF
:10342000231B08F420E046EB54E1BC01822F5DCF62
:1034300046EB54E1BC0180E058CF2091110431E00B
:10344000231B08F420E04FEC54E1BC01822F4DCF48
:103450004FEC54E1BC0180E048CF2091110431E0F1
:10346000231B08F420E04AE055E1BC01822F3DCF48
:103470004AE055E1BC0180E038CF2091110431E0F1
:10348000231B08F420E04CE355E1BC01822F2DCF33
:103490004CE355E1BC0180E028CF2091110431E0DC
:1034A000231B08F420E044E555E1BC01822F1DCF29
:1034B00044E555E1BC0180E018CFB0E0A0E0E3E6D0
:1034C000FAE10C949A2D7C01FC01808123DDC82F48
:1034D000192F609106047091070480910804C0DBE5
:1034E000062FD72EC82ED0E0C11748F081E01E333A
:1034F00008F080E0CDB7DEB7E8E00C94B62DFE0111
:10350000EE53FE4F8081F7019181892329F02C2D04
:103510004D2D602FCE01EBDB2196E6CFB0E0A0E091
:10352000E4E9FAE10C94972D7C01FC018081F2DC46
:10353000C82F192FD090070400910804D0910604D9
:103540006D2F7D2D802F8CDBC62EB72EA82E60917F
:1035500009046D0F7D2D802F83DB062FD72E982E2B
:10356000D0E0C11748F081E01E3308F080E0CDB70D
:10357000DEB7EBE00C94B32DFE01EE53FE4F9081CD
:10358000F7018181892351F0292D4D2D602F90FD68
:1035900003C02A2D4B2D6C2DCE01A9DB2196E1CF46
:1035A000B0E0A0E0E6EDFAE10C949A2D8C01FC016C
:1035B0008081B0DCC82FF92ED0900704C090080499
:1035C0006091090480E40E946012E82ED0E0CF15DB
:1035D00050F081E09DE39F1508F480E0CDB7DEB7A1
:1035E000E8E00C94B62DFE01EE53FE4F8081F80109
:1035F00091818923A1F0FE01EE0FFF1FE95BFE4FD1
:10360000808182958F70609106048E9D600D1124DB
:103610007D2D8C2D25DB472F282FCE0168DB2196B1
:10362000D6CFB0E0A0E0E7E1FBE10C949A2D8C014D
:10363000FC0180816FDCC82FF92ED0900704C09068
:1036400008046091090480E40E946012E82ED0E032
:10365000CF1550F081E09DE39F1508F480E0CDB7D1
:10366000DEB7E8E00C94B62DFE01EE53FE4F8081EC
:10367000F80191818923C1F0FE01EE0FFF1FEA5B83
:10368000FE4F6081E69EB001112495E07595679527
:103690009A95E1F780910604680F7D2D8C2DE0DA74
:1036A000472F282FCE0123DB2196D2CF0F931F93D4
:1036B000CF93DF93EC01888181111CC060910904D4
:1036C00020E1620F08F46FEF80910D0490910E04D9
:1036D0000E9468126AE070E00E94252D892B51F447
:1036E0000E94A5122EE3829FC0011124909308022C
:1036F0001092090288810EDC092F182F9A819111EE
:103700001AC020910802309109028217130609F0AD
:10371000A0F40217130689F080F06981822FFEDA87
:103720008FE390E0909309028093080206C06981BC
:10373000812FF4DA1F5F1017D0F381E00E3308F009
:1037400080E0DF91CF911F910F9108950F931F9308
:10375000CF93DF93EC01888181111CC06091090433
:1037600020E1620F08F46FEF80910D0490910E0438
:103770000E94681265E070E00E94252D892B51F4AB
:103780000E94A5122EE3829FC0011124909306028D
:10379000109207028881BEDB092F182F9A819111A0
:1037A0001AC020910602309107028217130609F011
:1037B000A0F40217130689F080F06981822FE9DAFC
:1037C0008FE390E0909307028093060206C0698120
:1037D000812FDFDA1F5F1017D0F381E00E3308F07E
:1037E00080E0DF91CF911F910F9108951F93CF93A8
:1037F000DF93C82F80910E028C1322C09091050494
:10380000937020910F0230E081E09217130609F4C3
:1038100080E0817080930D0280910A0490910C02E7
:10382000981731F080930C0240E060E080E0D1DA3C
:10383000C93280F4EC2FF0E0E35BF14D0C948A2D5B
:1038400081E0E7CF80910D02882349F040E060E0FD
:1038500080E0BFDA80E003C08BE092E02EDE909142
:103860000B029F5F90930B0281110CC082E080934A
:103870000A0280910D02811105C0C11103C083E0CD
:1038800080930A02DF91CF911F9108958BE092E01F
:1038900045DEE5CF8BE092E083DEE1CF8BE092E086
:1038A000C0DEDDCF8BE092E043DCD9CF8BE092E04D
:1038B00042DCD5CF8BE092E041DCD1CF8BE092E0CF
:1038C000EADBCDCF8BE092E0E9DBC9CF8BE092E081
:1038D0008BDBC5CF8BE092E08ADBC1CF8BE092E03F
:1038E00030DCBDCF8BE092E02FDCB9CF8BE092E0F3
:1038F0002EDCB5CF8BE092E02DDCB1CF8BE092E0F7
:1039000079DBADCF8BE092E0CCDBA9CF8BE092E00E
:10391000CBDBA5CF8BE092E070DBA1CF8BE092E018
:103920006FDC9DCF8BE092E06EDC99CF8BE092E074
:103930006DDC95CF8BE092E0B9DE91CF8BE092E029
:1039400005DF8DCF8BE092E008DC89CF8BE092E041
:1039500007DC85CF8BE092E006DC81CF80910B0203
:1039600081111FC080919E0390919F030E94FE25AC
:103970004091090420E431E0241B3109281739075C
:1039800080F40E94A5122EE3829FC001112490931F
:103990000402109205020E947D2690939F0380935B
:1039A0009E0380910B02B6DAD92F20910402309148
:1039B00005028217130609F010F592171306F9F0A5
:1039C000F0F02E533E4FF901808190910C02892333
:1039D000B1F00E94A51281FF17C010E070E080E0F6
:1039E000612F3ED9472F282F809104029091050224
:1039F0007ED98FE390E0909305028093040281E0EA
:103A0000DE3308F42CCF26CF0E94A512182F0E9477
:103A1000A512F0E88F9FC00111247FE7790F8091F4
:103A20000804DECF8BE092E05ADC19CF8BE092E005
:103A300059DC15CF8BE092E0F0DC11CF8BE092E007
:103A4000F7DC0DCF8BE092E0F8DC09CF8BE092E061
:103A5000FFDC05CF8BE092E000DD01CF8BE092E050
:103A600007DDFDCE8BE092E008DDF9CE8BE092E041
:103A70000FDDF5CE8BE092E010DDF1CE8BE092E031
:103A800017DDEDCE81E00895FDCF0895FBCF0895B9
:103A9000CF93DF93FC01808181503CDAEC016D2FE4
:103AA000F3DF6D2F8C2FF2DFDF91CF9108954F92CE
:103AB0005F926F927F928F929F92AF92BF92CF92BE
:103AC000DF92EF92FF92CF936091CA037091CB0384
:103AD0008091CC039091CD030E9407266B017C015D
:103AE0000E9489264B015C018092CA039092CB030D
:103AF000A092CC03B092CD03A091A103E1EAF3E040
:103B00008A2F90E04FEF5FEF60E070E04C195D09A5
:103B10006E097F09A9132AC08093A1038091CE0367
:103B2000C0E0811108C080910504C82FC37019F04E
:103B3000C82FC695C69580910A02813009F440C00D
:103B4000882339F1823009F448C0833009F44FC02A
:103B5000CF91FF90EF90DF90CF90BF90AF909F906C
:103B60008F907F906F905F904F900895218D328D50
:103B70002901712C612C441555056605770520F443
:103B800081509F5F3296C6CF2C0D3D1D328F218F05
:103B9000F8CF10920B0280920D0490920E04A09226
:103BA0000F04B092100489E2E1EAF3E0A1E1B4E08D
:103BB00001900D928A95E1F781E080930A02C8CFC7
:103BC0008C2F14DECC2321F280910A02823009F47A
:103BD0009FD98BE092E05CDFBBCFC0930E02809157
:103BE0000504837080930F027BD883E0E6CF809139
:103BF000A003882331F085E094E00E945A0C1092D3
:103C0000A00360910D0470910E0480910F049091B7
:103C10001004FDD7603171058105910508F498CF36
:103C200010920A0295CFE091B802F091B90209957D
:103C3000109211048FEF9FEF90932B0480932A042E
:103C400090932D0480932C0490932F0480932E0442
:103C50009093310480933004909333048093320422
:103C60009093350480933404909337048093360402
:103C700090933904809338041092A1039093BB036E
:103C80008093BA039093BD038093BC039093BF03CA
:103C90008093BE039093C1038093C0039093C303AA
:103CA0008093C2039093C5038093C4039093C7038A
:103CB0008093C6039093C9038093C80381E08093E7
:103CC000A00385E094E00E94580C1092A00380911C
:103CD00005048C7F11F40C9439160895CF93C82FE6
:103CE000882389F08091CE0381110DC07FDD109271
:103CF0000E0280910504837080930F020E9470165B
:103D000083E080930A02C093CE03CF910895E5E04B
:103D1000F4E0908121E09227908310920A020C94A3
:103D20006A1581E0F4CF80910504837011F410923C
:103D30000A02809105048C7F8160809305040895B8
:103D4000F2DF81E00C946A1580910504837011F014
:103D500010920A02809105048C7F809305040895D7
:103D6000F3DF81E00C946A1590910504937051F093
:103D7000811109C094609093050410920A02862F65
:103D80000C946A150895893210F0906AF4CF282FA8
:103D9000220F220F922BEFCF682F9091050496955A
:103DA000969581E0890F893208F081E0DDCF81E0CE
:103DB000F3CF682F90910504969596958FEF890F14
:103DC00009F488E2D1CF81E0F4CF9091050493709B
:103DD00061F08093060460930704493708F048E7D0
:103DE00040930804822F0C946A150895A5E0B4E06E
:103DF0001196EC911197F0E0282F13964C911397A0
:103E000012966C91CF010896E0CF81E0EFCFE5E00C
:103E1000F4E09181282F43816281E92FE850FF0B64
:103E2000CF01D3CF81E0F3CFE5E0F4E0628120E180
:103E3000620F08F46FEF9181282F4381892F90E062
:103E4000C4CF81E0F1CFE5E0F4E0628120E1621BC4
:103E500008F460E09181282F4381892F90E0B5CF4D
:103E600081E0F1CFE5E0F4E0438120E1420F08F486
:103E70004FEF9181282F6281892F90E0A6CF81E0BA
:103E8000F1CFE5E0F4E0438120E1421B08F440E09B
:103E90009181282F6281892F90E097CF81E0F1CF27
:103EA000E5E0F4E0248130E1230F08F42FEF2483D0
:103EB0000C946A1581E0F4CFE5E0F4E0248130E170
:103EC000231B08F420E024830C946A1581E0F4CFCE
:103ED000519A0895FC01EE0FFF1FE80FF91FE65CF1
:103EE000FB4F6183408322830895EAE3F4E08183FA
:103EF00060834283339694E0E43FF907C1F7089565
:103F00003BB13D7F2BB122604FB7F8948AE394E038
:103F1000FC015191CF0168E02BB957FF3BB9550F18
:103F2000000000C03BB96A95B9F7F4E0843F9F07F1
:103F300079F74FBF8FE292E00197F1F700C00000E0
:103F400008950C944A0C089580E00E94D60F817069
:103F500008950E949B108FE59AEE0197F1F700C03B
:103F600000000E949B10F0DF882311F0EADF01C7F8
:103F70000895EFCF0895CF93DF93EB0186319C47EF
:103F800001F50E941A0B9D81992391F08A7A91E0A4
:103F900009F490E09093CF03811108C089E242D5E3
:103FA0000E94C50B80E0DF91CF91089585E3F7CFA4
:103FB0008091CF03811103C089E24BD5F1CF85E316
:103FC000FCCF81E0F0CFCF93DF93EC01FB01858143
:103FD000882309F4CEC09E0130572332310508F002
:103FE000AEC08FEE93E00E94540CFE01E150F0470A
:103FF000E232F10520F4EA58F14D0C948A2D8091BB
:10400000EF0381608093EF0393C08091F003886099
:104010008093F0038DC08091EF038260F3CF809195
:10402000EF038460EFCF8091EF038860EBCF809146
:10403000F0038160EDCF8091F0038260E9CF809141
:10404000EF038061DFCF8091EF038062DBCF80914F
:10405000EF038064D7CF0E94E8068091EF03806869
:10406000D1CF8091EF038C60CDCF8091F00383603E
:10407000CFCF8091EF038E7FC5CF8091F003877FF4
:10408000C7CF8091EF038D7FBDCF8091EF038B7FF2
:10409000B9CF8091EF03877FB5CF8091F0038E7FFA
:1040A000B7CF8091F0038D7FB3CF8091EF038F7EE8
:1040B000A9CF8091EF038F7DA5CF8091EF038F7BF8
:1040C000A1CF0E94E8068091EF038F779BCF80916C
:1040D000EF03837F97CF8091F0038C7F99CF8091FE
:1040E000EF0382FB992790F921E0922790FB82F958
:1040F00090FB83F987CF8091F003982F9095917072
:104100008E7F892B90FB81F983CF9091EF03892FCC
:104110008F7B96FF806476CF0E94E8069091EF0334
:10412000892F97FB87F980586DCF81E00E945C0C46
:104130008FEE93E00E94560C0E94E80680E0DF912B
:10414000CF91089580E0F2CF9091EF03892F8F7E79
:1041500094FF806157CF9091EF03892F8E7F90FF5E
:10416000816050CF9091F003892F877F93FF886003
:104170004FCF81E0E4CF282F35EB2303C00111247A
:1041800097FF04C080589109892F089580589F4F48
:10419000FBCF8091D60380FF0DC06091170270E0C5
:1041A000660F771F6038710570F56115710569F14B
:1041B000862F089581FF07C06091170284E0689FF1
:1041C000B0011124EFCF6091170282FD0AC08091E7
:1041D000D5038823A9F02091160260911702821757
:1041E00010F088E0ECCF869FC001112433E0880FE7
:1041F000991F3A95E1F7622F70E00E94392DD2CFD6
:1042000068E070E0D5CF8FE7089581E00895809150
:10421000D60380FF0CC06091130270E0759567951E
:10422000759567956115710549F1862F089581FF90
:1042300006C06091130270E075956795F3CF6091A9
:10424000130282FD0BC09091D4039923A1F06091D9
:10425000120280911302961738F0682F70E06038D0
:10426000710500F38FE70895899FC001112470E064
:104270000E94392DF4CF61E070E0D7CF81E008953E
:104280008D3C29F486DF81958093DA0308958E3C76
:1042900011F47FDFF9CF8F3C29F47BDF8195809388
:1042A000D9030895803D11F474DFF9CF893D21F4DD
:1042B000AEDF8093DB0308958A3D19F4A8DF819572
:1042C000F8CF8B3D29F4A3DF81958093DC0308951B
:1042D0008C3D11F49CDFF9CF9FE2980F983070F479
:1042E000815D990B21E030E001C0220F8A95EAF749
:1042F0008091D803822B8093D80308958D3D31F4AB
:104300008091D60381608093D60308958E3D21F479
:104310008091D6038260F7CF8F3DB9F78091D603A5
:104320008460F1CF4091D9038D3C59F48091DA0338
:1043300087FF0DC01092DA0341110BC01092D50314
:1043400008C08E3C81F48091DA0318169CF3442354
:1043500081F08091DB039091DC03892B09F05AC036
:104360001092D40308958F3C49F447FFF0CF109288
:10437000D9038091DA038111ECCFE0CF803D19F4AD
:104380001416ACF3E4CF9091DB03893D29F41916A0
:10439000F4F61092DB03DBCF8A3D19F497FFD7CFF9
:1043A000F8CF9091DC038B3D29F497FFD0CF10928A
:1043B000DC03CDCF8C3D19F41916CCF3C8CF9FE2A6
:1043C000980F983090F4815D990B21E030E0B901AD
:1043D00002C0660F771F8A95E2F7CB018095909116
:1043E000D80389238093D803B2CF8D3D31F48091D7
:1043F000D6038E7F8093D603AACF8E3D21F4809181
:10440000D6038D7FF7CF8F3D09F0A1CF8091D603E2
:104410008B7FF0CF089571D49C019091D903809146
:10442000DA03982B21F03093D3032093D203909199
:10443000DB038091DC03982B21F03093D103209390
:10444000D00387ED93E0E2C186E0E7EDF3E0DF0122
:104450001D928A95E9F71092D5031092D403109219
:10446000D6030895FC01828181110EC083818111E0
:104470000BC08481811108C091E08581811101C048
:1044800090E0892F8170089581E0FCCFA6E0B0E034
:10449000ECE4F2E20C949F2D86E0E7EDF3E0DE0120
:1044A000119601900D928A95E1F71092D90310921E
:1044B000DA031092DB031092DC038B819C81892B41
:1044C00081F08091D2039091D30398D3AC01909165
:1044D000D5039923A9F1809118028417150608F4D1
:1044E0003CC08D819E81892B89F08091D003909171
:1044F000D10384D3AC019091D403992309F463C010
:10450000809114028417150608F46BC0BE016F5F1A
:104510007F4F87ED93E0CDD2811104C087ED93E00A
:10452000A1DF811178DF86E0FE013196A7EDB3E0CF
:1045300001900D928A95E1F72696E3E00C94BB2D4D
:10454000209119028AE0289F900111242417350731
:1045500040F69F5F9093D50302C09F3FD1F71B8128
:10456000112351F016DE9FEF11160CF491E0899F94
:10457000802D11248093D9031C81112351F009DE71
:104580009FEF11160CF491E0899F802D11248093E8
:10459000DA038091D903882309F4A3CF1091DA03B9
:1045A000112309F49ECFE7DD882349F08093D903D6
:1045B000812FE1DD882329F08093DA0392CF81E017
:1045C000F5CF81E0F9CF209115028AE0289F900174
:1045D00011242417350708F099CF9F5F9093D403D7
:1045E00002C09F3FD1F71D81112351F010DE9FEFD4
:1045F00011160CF491E0899F802D11248093DB0328
:104600001E81112351F003DE9FEF11160CF491E08F
:10461000899F802D11248093DC038091DB03882304
:1046200009F474CF1091DC03112309F46FCFA3DDDB
:10463000882349F08093DB03812F9DDD882329F0B7
:104640008093DC0363CF81E0F5CF81E0F9CF0F9356
:104650001F93CF93DF93C42FD22FFC018581882332
:10466000C1F04093DF0349D39093DE038093DD03D1
:1046700080E28C0F883040F4C77081E001C0880F61
:10468000CA95EAF70E94D404DF91CF911F910F9150
:1046900008951091DF03141331C08091DD039091D0
:1046A000DE03ACD2883C910548F5C0E2CD0F1D1762
:1046B000B9F080E2810F883040F4177081E001C0CA
:1046C000880F1A95EAF70E94D904C83048F481E0AF
:1046D0009D2F977001C0880F9A95EAF70E94D40425
:1046E000802F0E94CD04C83078F6D77081E001C0D9
:1046F000880FDA95EAF70E94D904C6CF80E28C0FC2
:10470000883010F6C77081E001C0880FCA95EAF7BB
:10471000F2CF0F93DB0188519C478730910598F5C4
:10472000FC01E856F14D0C948A2D06E221EE41EE93
:104730006AE17CE7CD018BDF80E00F91089507E20D
:1047400025EE45EE6BE17CE7F5CF06E221EE40EE8B
:1047500068E17CE7EFCF07E225EE44EE69E17CE714
:10476000E9CF06E221EE42EE6CE17CE7E3CF07E21F
:1047700025EE46EE6DE17CE7DDCF08E221E045EE77
:104780006EE17CE7D7CF15968C91882319F01092B3
:10479000DF03D3CF81E0D1CF9093E5038093E4038F
:1047A0000895F2D191E0813009F090E0892F0895C9
:1047B000E091E403F091E503309739F00190F08146
:1047C000E02D309711F00995089580E00895E0916B
:1047D000E403F091E503309731F00280F381E02D9E
:1047E000309709F009950895E091E403F091E5030D
:1047F000309759F024813581232B39F026E0DC01F4
:104800002C930480F581E02D09950895E091E4034F
:10481000F091E503309759F026813781232B39F049
:1048200022E0DC012C930680F781E02D09950895A4
:10483000A3E0B0E0EEE1F4E20C94A02D2091E203BD
:104840003091E30328173907B1F09093E303809385
:10485000E203E091E403F091E503309761F0008416
:10486000F185E02D309739F023E029839B838A83FB
:10487000CE01019609952396E2E00C94BC2DA3E0AD
:10488000B0E0E5E4F4E20C94A02D2091E003309137
:10489000E10328173907B1F09093E1038093E00317
:1048A000E091E403F091E503309761F00084F18535
:1048B000E02D309739F024E029839B838A83CE0151
:1048C000019609952396E2E00C94BC2DCF93DF93DB
:1048D000C0910202D0910302229663DF882381F007
:1048E0008091EF0387FF0CC0C0910002D0910102BC
:1048F00022969EE180E0915028F4DF91CF910895B7
:1049000096E0F8CF29912223B1F38F5FF4CFCF93B4
:10491000C82F811102C080E023C043DF882311F13A
:104920008091EF0387FF1EC0EC2FE695E695E69594
:10493000EE3188F78091000290910102E80FF92F83
:10494000F11D228130E0C77081E090E002C0880F45
:10495000991FCA95E2F72823392381E0232BD9F246
:10496000CF9108958091020290910302FC0132964A
:10497000089621912C1721F0E817F907D1F7CBCF32
:1049800081E0EECF9C01FC0132969FEF80E04191E7
:10499000461751F09F3F19F4411101C0982F8F5FC6
:1049A0008630A9F79F3F09F40895290F311D97FD1F
:1049B0003A95F90162830895FC0132960896219197
:1049C000261303C0DF0111971C92E817F907B9F706
:1049D0000895E62FE695E695E695EE3168F4E80F42
:1049E000F92FF11D677021E030E001C0220F6A95B8
:1049F000EAF78281822B82830895E62FE695E69579
:104A0000E695EE3170F4E80FF92FF11D677021E0A3
:104A100030E001C0220F6A95EAF7209582812823B1
:104A200022830895CF93C82FBCDE6C2F882359F0C2
:104A30008091EF0387FF07C08091000290910102EF
:104A4000C8DFCF91089580910202909103029ADF0E
:104A5000F8CFCF93C82FA5DE6C2F882359F0809113
:104A6000EF0387FF07C08091000290910102C5DF2C
:104A7000CF91089580910202909103029DDFF8CFBB
:104A800090DE882379F08091EF0387FF0BC0E091DF
:104A90000002F091010232968EE1DF011D928A95AB
:104AA000E9F70895E0910202F0910302329686E060
:104AB000F4CFDC01FB0111969C9111978181981331
:104AC00022C012968C911297882319F09281891333
:104AD0001AC013968C911397882319F09381891328
:104AE00012C015968C911597882319F0958189131A
:104AF0000AC014969C91992321F081E02481291306
:104B000003C080E001C081E0817008950895FECF68
:104B1000089581110CC081E080931D0260911A02FA
:104B200070911B0280911C0290911D02F0CF82E0D7
:104B3000F3CF83E080931D0260911A0270911B02F3
:104B400080911C0290911D02E2CFE3CF089581E095
:104B500080931D0260911A0270911B0280911C02C9
:104B600090911D02D4CFF3CF089591E0811101C03F
:104B700090E090931C0260911A0270911B02809148
:104B80001C0290911D02C3CF80911C020895809356
:104B90001B0260911A0270911B0280911C0290917D
:104BA0001D02B5CF80911B02089580931A02609177
:104BB0001A0270911B0280911C0290911D02A7CFD6
:104BC00080911A02089508950895FECF08950895DA
:104BD0000895F9CF0895CF93FADF0E949B10F8DF74
:104BE000C0E08C2F0E94D60F892B31F4CF5FC530E7
:104BF000C1F780E0CF91089581E0FCCFCF93DF93A0
:104C0000EC017BD08C1B9D0BDF91CF910895CF924F
:104C1000DF92EF92FF926B017C017BD06C197D09D2
:104C20008E099F09FF90EF90DF90CF90089585B790
:104C3000806885BF85B7806885BF08951F921FB6BD
:104C40001F9211248F939F93AF93BF938091E6039C
:104C5000811113C08091F4049091F504A091F604A1
:104C6000B091F7044196A11DB11D8093F404909377
:104C7000F504A093F604B093F704BF91AF919F9110
:104C80008F911F901FBE1F9018958091FC04843057
:104C900031F10E94C7031092E60388E190E020E41E
:104CA0000FB6F894A895809360000FBE2093600023
:104CB00083B7817F846083BF83B7816083BF78942B
:104CC000889583B78E7F83BF0FB6F894A89580919F
:104CD0006000886180936000109260000FBE0895AC
:104CE0000E94E8060C94D00382E084BD93E095BD59
:104CF0009DE797BD80936E0008952FB7F89480913B
:104D0000F4049091F504A091F604B091F7042FBF3C
:104D100008952FB7F8946091F4047091F504809190
:104D2000F6049091F7042FBF089578941F921FB650
:104D30001F9211248F939F93AF93BF938091F4049C
:104D40009091F504A091F604B091F7040196A11D8D
:104D5000B11D8093F4049093F504A093F604B093EE
:104D6000F704BF91AF919F918F911F901FBE1F902D
:104D7000189581E08093E00080E28093D800109243
:104D8000C9008FE097E20197F1F700C0000087E0CB
:104D900090EBDC018093050590930605A093070531
:104DA000B093080588E19CE00FB6F894A89580932D
:104DB00060000FBE90936000FFCF88E19CE00FB6CB
:104DC000F894A895809360000FBE90936000FFCF89
:104DD0009B01BA019091FC049430E1F48F708093B0
:104DE000E9009FEF8091E800915085FD06C08AE6BA
:104DF0008A95F1F700C09111F5CF8091E80085FF09
:104E000009C050E040E0C901B9D18091E8008E7737
:104E10008093E800089543E050E0BC0182E0D8CFE1
:104E200046E050E0BC0182E0D3CF40E250E0BC015C
:104E300082E0CECFCF93DF93EC01A6DE48E050E0D6
:104E4000BE0181E0C5DF88E0FE01A7EEB3E001907E
:104E50000D928A95E1F7DF91CF9108958091FB043F
:104E6000811107C019D370D38091E20084608093D0
:104E7000E20008951092FB04089569DE81E075CE8A
:104E80006091F80481E0611101C080E052CE909100
:104E9000FC0481E0943009F080E06091F80455CE84
:104EA00042E061EC81E074D242E261EC82E070D2D7
:104EB0009091FC0481E0943009F080E06091F80466
:104EC00028CE8091FE04833009F45EC030F4813036
:104ED000C1F1823009F494C008958A3009F483C086
:104EE0008B3009F46BC0893009F04DC08091FD040E
:104EF000813209F048C08091010590910205029726
:104F000008F041C08091E800877F8093E80080919D
:104F1000E80082FF34C09091F3008091F200029784
:104F200031F48091F100813011F0863019F48091D4
:104F3000F1002DDE8091E8008B778093E8005CD251
:104F400022C08091FD04813AF1F48091E800877FCE
:104F50008093E8008091010590910205892B59F416
:104F600068E087EE93E070E056D18091E8008B779F
:104F70008093E800089560E090E080E0F4CF8091B5
:104F8000FC048111C4CF08958091FD04813AD9F7C2
:104F90008091010590910205892BA9F78091E80085
:104FA000877F8093E8008091E80080FFFCCFECDDF4
:104FB0008093F1008091E8008E77BFCF8091FD044F
:104FC000813209F78091010590910205892BD9F66C
:104FD0008091E800877F8093E8000ED28091FF04E3
:104FE000C4DD0C94E8068091FD04813261F6809165
:104FF000E800877F8093E800FFD180910005D5CD40
:105000008091FD04813A09F0BECF8091E800877F4E
:105010008093E8008091E80080FFFCCFD1DDC8CF0D
:1050200084B7877F84BF0FB6F894A89580916000FD
:10503000886180936000109260000FBE80E890E06D
:105040000FB6F89480936100909361000FBE8BCDF2
:1050500023D27AD2E2EEF0E080818460808378947B
:10506000DAC48EE192E098CB8091FC04853029F47B
:105070008091FC04853011F033CE089506DEABDD5F
:105080008823B1F38091FA04882391F362D00E94BF
:10509000E806EECF08959A0140910305509104056A
:1050A00000C0492F55274330510519F168F44130AC
:1050B000510509F444C04230510509F445C090E05F
:1050C00080E050E040E025C04132510549F14232D4
:1050D0005105A9F784E490E04DE754E061157105AE
:1050E000C1F086EB90E047EC53E06130710589F048
:1050F000E6CF99278130910581F0009729F002973A
:10510000F1F6E0E5F3E002C0E6E7F3E0849190E039
:10511000AF01F901518340830895EEE5F3E0F6CF46
:1051200089E090E04CE853E06115710591F389E066
:1051300090E045EA53E06130710559F3C0CF82E158
:1051400090E045EB53E0E5CF8BE390E04AE753E096
:10515000E0CF19BC82E089BD09B400FEFDCF80918B
:10516000D8008F7D8093D8008091E000826080938A
:10517000E0008091E00081FDFCCF0895AF92BF92E6
:10518000CF92DF92FF920F931F93CF93DF936C0127
:10519000EB018A0150D1F82E811123C001151105B0
:1051A00039F0F80180819181C81BD90BC80ED91E36
:1051B000B12CA12C2097A9F08091E80085FD21C099
:1051C0008091E8008E778093E80001151105A1F029
:1051D000F80180819181A80EB91EB182A08285E07C
:1051E000F82E8F2DDF91CF911F910F91FF90DF90BF
:1051F000CF90BF90AF9008951ED18823D9F2F82E9A
:10520000F0CFF60181916F018093F1002197FFEFBC
:10521000AF1ABF0ACFCFFC0180910305909104051E
:1052200086179707A0F06115710529F49091E800A1
:105230009E779093E80090E06115710551F491110B
:1052400008C08091E80082FF34C080E00895BC016E
:10525000F2CF8091FC048823C1F18530C1F18091A7
:10526000E80083FD30C08091E80082FDEACF8091A4
:10527000E80080FFE1CF8091F3002091F200382F09
:105280006115710519F02830310558F091E028308A
:10529000310509F090E02091E8002E772093E80096
:1052A000CBCF81918093F100615071092F5F3F4F07
:1052B000E7CF8091FC04882341F0853041F0809154
:1052C000E80083FFBECF81E0089582E0089583E087
:1052D0000895FC01809103059091040586179707B6
:1052E000A0F06115710529F48091E8008E77809314
:1052F000E80090E06115710551F4911108C08091AA
:10530000E80082FF35C080E00895BC01F2CF8091B3
:10531000FC048823C9F18530C9F18091E80083FD40
:1053200031C08091E80082FDEACF8091E80080FFE3
:10533000E1CF8091F3002091F200382F61157105C3
:1053400019F02830310558F091E02830310509F086
:1053500090E08091E8008E778093E800CBCF849135
:105360008093F1003196615071092F5F3F4FE6CF76
:105370008091FC04882341F0853041F08091E80061
:1053800083FFBDCF81E0089582E0089583E0089512
:10539000982F973028F08F708093E90081E008956E
:1053A0009093E900242F762F50E0981731F07091F8
:1053B000EC002091ED005091F00021FD02C09F5FB4
:1053C000E8CF3091EB003E7F3093EB003091ED0061
:1053D0003D7F3093ED003091EB0031603093EB0076
:1053E0007093EC002093ED005093F0002091EE00BC
:1053F00027FDE5CF80E008958091FD0487FF13C06D
:105400008091E80082FF06C08091E8008B7780934E
:10541000E80004C08091FC048111F2CF08958091CE
:10542000FC048823D9F38091E80080FFF8CF8091B5
:10543000E8008E77ECCF2091E4003091E50095E60E
:10544000A9012091EC00822F817020FF06C080917D
:10545000E80080FF06C080E008952091E80022FD6A
:105460001AC08091FC04882389F0853089F08091EE
:10547000EB0085FD0FC02091E4003091E50042175C
:105480005307F9F29150E1F684E0089582E008951F
:1054900083E0089581E0089567D06ED0E0EEF0E0FB
:1054A000808181608083E8EDF0E080818F77808368
:1054B00019BCA7EDB0E08C918E7F8C9380818F7E9C
:1054C00080831092FB0408950F931F93CF93DF9373
:1054D0004BD052D0C8EDD0E088818F778883888107
:1054E0008068888388818F7D888319BC1092FC0432
:1054F0001092F8041092FA041092F90400EE10E0F1
:10550000F80180818B7F808388818160888342E07D
:1055100060E080E03DDFE1EEF0E080818E7F80831F
:10552000E2EEF0E08081816080838081886080830A
:10553000F80180818E7F8083888180618883DF91FC
:10554000CF911F910F910895E8EDF0E080818F7E5B
:105550008083E7EDF0E080818160808384E082BF1A
:1055600081E08093FB04B0CFE8EDF0E080818E7F96
:1055700080831092E20008951092DA001092E10008
:1055800008951F920F920FB60F9211242F933F93FD
:105590004F935F936F937F938F939F93AF93BF933B
:1055A000EF93FF938091E10082FF0AC08091E200B7
:1055B00082FF06C08091E1008B7F8093E1002AD2B8
:1055C0008091DA0080FF17C08091D80080FF13C05F
:1055D0008091DA008E7F8093DA008091D90019BC27
:1055E00080FF8EC082E089BD09B400FEFDCF81E05E
:1055F0008093FC0433DC8091E10080FF18C080912F
:10560000E20080FF14C08091E2008E7F8093E20070
:105610008091E20080618093E2008091D8008062F6
:105620008093D80019BC85E08093FC0429DC80912C
:10563000E10084FF29C08091E20084FF25C019BCED
:1056400082E089BD89B5982F917080FFFBCF809152
:10565000D8008F7D8093D8008091E1008F7E809369
:10566000E1008091E2008F7E8093E2008091E20071
:1056700081608093E2008091F804882309F444C09B
:1056800084E08093FC0403DC8091E10083FF27C069
:105690008091E20083FF23C08091E100877F8093A7
:1056A000E10082E08093FC041092F8048091E10014
:1056B0008E7F8093E1008091E2008E7F8093E200F4
:1056C0008091E20080618093E20042E060E080E04F
:1056D0005FDE8091F00088608093F000CEDBFF9168
:1056E000EF91BF91AF919F918F917F916F915F915A
:1056F0004F913F912F910F900FBE0F901F901895D3
:105700001092FC04B7DB77CF8091E30087FD93E034
:105710009093FC04B8CF1F920F920FB60F921124F2
:105720002F933F934F935F936F937F938F939F93A9
:10573000AF93BF93CF93DF93EF93FF93D091E900A3
:10574000DF708091EC00C82FC17080FDC0E810921E
:10575000E9008091F000877F8093F00078941ED05C
:105760001092E9008091F00088608093F000CD2BCA
:10577000CF70C093E900FF91EF91DF91CF91BF917E
:10578000AF919F918F917F916F915F914F913F91D9
:105790002F910F900FBE0F901F901895AAE2B0E0C6
:1057A000E3EDFBE2CCC18DEF94E02091F100FC0130
:1057B0002193CF01F5E085309F07B9F782DB809117
:1057C000E80083FF16C18091FD049091FE049A3099
:1057D00008F00FC1E92FF0E0E156F14D9BC1803890
:1057E00099F0823809F005C1809101058F708730EA
:1057F00008F0FFC08093E9008091EB0085FB8827CB
:1058000080F91092E90006C08091F9049091FA04A1
:10581000911182609091E800977F9093E8008093C7
:10582000F1001092F1008091E8008E77DFC08823AC
:1058300009F4CDC0823009F0DCC08091FF048111F1
:10584000D0C0809101058F702FEF280F263008F00F
:10585000D0C08093E9002091EB0020FFC2C09330BC
:1058600031F48091EB0080628093EB00BAC090919C
:10587000EB0090619093EB0021E030E001C0220F3B
:105880008A95EAF72093EA001092EA008091EB00F3
:105890008860EACF8111ADC01091FF041F7780911D
:1058A000E3008078812B8093E3008091E800877F7C
:1058B0008093E800A1DD8091E80080FFFCCF80911B
:1058C000E30080688093E30082E0111183E080931D
:1058D000FC048FC08058823008F08BC08091FF0498
:1058E000909100058C3D23E0920799F583E08A832F
:1058F0008AE289834FB7F894DE01139620E03EE0F8
:1059000051E2E32FF0E050935700E49120FF03C0F1
:10591000E295EF703F5FEF708E2F90E0EA30B8F0C5
:10592000C7968D939D932F5F243159F74FBF809178
:10593000E800877F8093E8006AE270E0CE0101967C
:105940006ADC8091E8008B778093E80052C0C096B3
:10595000E8CF6091010570910205AE014F5F5F4F86
:105960009ADBBC01892B09F444C09091E800977F31
:105970009093E80089819A81ACDCE3CF8038C9F547
:105980008091E800877F8093E8008091F8048093FD
:10599000F10049CF81112DC09091FF04923048F55C
:1059A0008091E800877F8093E8009093F80424DDDD
:1059B0008091F804882311F084E005C08091E30011
:1059C00087FDFACF81E08093FC046ADA12C08091EF
:1059D000FF04813071F481E0933009F080E080931E
:1059E000FA041092E9008091E800877F8093E80034
:1059F00003DD8091E80083FF0AC08091E800877F83
:105A00008093E8008091EB0080628093EB00AA967F
:105A1000E3E0B1C00895CF938091FC04882399F00E
:105A2000C091E900CF709091EC00892F817090FDBA
:105A300080E8C82B1092E9008091E80083FDAEDE7B
:105A4000CF70C093E900CF910895AA1BBB1B51E111
:105A500007C0AA1FBB1FA617B70710F0A61BB70BDE
:105A6000881F991F5A95A9F780959095BC01CD0183
:105A7000089597FB072E16F4009406D077FD08D002
:105A8000E4DF07FC05D03EF4909581959F4F089583
:105A9000709561957F4F0895A1E21A2EAA1BBB1B3A
:105AA000FD010DC0AA1FBB1FEE1FFF1FA217B307EA
:105AB000E407F50720F0A21BB30BE40BF50B661F00
:105AC000771F881F991F1A9469F7609570958095C4
:105AD00090959B01AC01BD01CF010895052E97FB68
